{
  "contractName": "UpgradeablePetV2",
  "abi": [
    {
      "inputs": [],
      "stateMutability": "nonpayable",
      "type": "constructor"
    },
    {
      "anonymous": false,
      "inputs": [
        {
          "indexed": false,
          "internalType": "uint8",
          "name": "version",
          "type": "uint8"
        }
      ],
      "name": "Initialized",
      "type": "event"
    },
    {
      "anonymous": false,
      "inputs": [
        {
          "indexed": false,
          "internalType": "uint256",
          "name": "value",
          "type": "uint256"
        }
      ],
      "name": "ValueChanged",
      "type": "event"
    },
    {
      "inputs": [
        {
          "internalType": "address",
          "name": "petOwner",
          "type": "address"
        }
      ],
      "name": "initialize",
      "outputs": [],
      "stateMutability": "nonpayable",
      "type": "function"
    },
    {
      "inputs": [
        {
          "internalType": "uint256",
          "name": "value",
          "type": "uint256"
        }
      ],
      "name": "store",
      "outputs": [],
      "stateMutability": "nonpayable",
      "type": "function"
    },
    {
      "inputs": [],
      "name": "retrieve",
      "outputs": [
        {
          "internalType": "uint256",
          "name": "",
          "type": "uint256"
        }
      ],
      "stateMutability": "view",
      "type": "function",
      "constant": true
    },
    {
      "inputs": [],
      "name": "increment",
      "outputs": [],
      "stateMutability": "nonpayable",
      "type": "function"
    }
  ],
  "bytecode": "0x608060405234801561001057600080fd5b5061001f61002460201b60201c565b6101bf565b600060019054906101000a900460ff1615610074576040517f08c379a000000000000000000000000000000000000000000000000000000000815260040161006b90610168565b60405180910390fd5b60ff801660008054906101000a900460ff1660ff1610156100e35760ff6000806101000a81548160ff021916908360ff1602179055507f7f26b83ff96e1f2b6a682f133852f6798a09c465da95921460cefb384740249860ff6040516100da91906101a4565b60405180910390a15b565b600082825260208201905092915050565b7f496e697469616c697a61626c653a20636f6e747261637420697320696e69746960008201527f616c697a696e6700000000000000000000000000000000000000000000000000602082015250565b60006101526027836100e5565b915061015d826100f6565b604082019050919050565b6000602082019050818103600083015261018181610145565b9050919050565b600060ff82169050919050565b61019e81610188565b82525050565b60006020820190506101b96000830184610195565b92915050565b6106c1806101ce6000396000f3fe608060405234801561001057600080fd5b506004361061004c5760003560e01c80632e64cec1146100515780636057361d1461006f578063c4d66de81461008b578063d09de08a146100a7575b600080fd5b6100596100b1565b6040516100669190610393565b60405180910390f35b610089600480360381019061008491906103df565b6100bb565b005b6100a560048036038101906100a0919061046a565b61018c565b005b6100af610304565b005b6000600154905090565b600260009054906101000a900473ffffffffffffffffffffffffffffffffffffffff1673ffffffffffffffffffffffffffffffffffffffff163373ffffffffffffffffffffffffffffffffffffffff161461014b576040517f08c379a0000000000000000000000000000000000000000000000000000000008152600401610142906104f4565b60405180910390fd5b806001819055507f93fe6d397c74fdf1402a8b72e47b68512f0510d7b98a4bc4cbdf6ac7108b3c59816040516101819190610393565b60405180910390a150565b60008060019054906101000a900460ff161590508080156101bd5750600160008054906101000a900460ff1660ff16105b806101ea57506101cc30610357565b1580156101e95750600160008054906101000a900460ff1660ff16145b5b610229576040517f08c379a000000000000000000000000000000000000000000000000000000000815260040161022090610586565b60405180910390fd5b60016000806101000a81548160ff021916908360ff1602179055508015610266576001600060016101000a81548160ff0219169083151502179055505b81600260006101000a81548173ffffffffffffffffffffffffffffffffffffffff021916908373ffffffffffffffffffffffffffffffffffffffff16021790555080156103005760008060016101000a81548160ff0219169083151502179055507f7f26b83ff96e1f2b6a682f133852f6798a09c465da95921460cefb384740249860016040516102f791906105f8565b60405180910390a15b5050565b6001600081548092919061031790610642565b91905055507f93fe6d397c74fdf1402a8b72e47b68512f0510d7b98a4bc4cbdf6ac7108b3c5960015460405161034d9190610393565b60405180910390a1565b6000808273ffffffffffffffffffffffffffffffffffffffff163b119050919050565b6000819050919050565b61038d8161037a565b82525050565b60006020820190506103a86000830184610384565b92915050565b600080fd5b6103bc8161037a565b81146103c757600080fd5b50565b6000813590506103d9816103b3565b92915050565b6000602082840312156103f5576103f46103ae565b5b6000610403848285016103ca565b91505092915050565b600073ffffffffffffffffffffffffffffffffffffffff82169050919050565b60006104378261040c565b9050919050565b6104478161042c565b811461045257600080fd5b50565b6000813590506104648161043e565b92915050565b6000602082840312156104805761047f6103ae565b5b600061048e84828501610455565b91505092915050565b600082825260208201905092915050565b7f5570677261646561626c655065743a206e6f74206f776e657200000000000000600082015250565b60006104de601983610497565b91506104e9826104a8565b602082019050919050565b6000602082019050818103600083015261050d816104d1565b9050919050565b7f496e697469616c697a61626c653a20636f6e747261637420697320616c72656160008201527f647920696e697469616c697a6564000000000000000000000000000000000000602082015250565b6000610570602e83610497565b915061057b82610514565b604082019050919050565b6000602082019050818103600083015261059f81610563565b9050919050565b6000819050919050565b600060ff82169050919050565b6000819050919050565b60006105e26105dd6105d8846105a6565b6105bd565b6105b0565b9050919050565b6105f2816105c7565b82525050565b600060208201905061060d60008301846105e9565b92915050565b7f4e487b7100000000000000000000000000000000000000000000000000000000600052601160045260246000fd5b600061064d8261037a565b91507fffffffffffffffffffffffffffffffffffffffffffffffffffffffffffffffff8214156106805761067f610613565b5b60018201905091905056fea264697066735822122044d4f259220fe9c35a3044d7a758f457d97c75fb5ead835474ce2441ad2b451a64736f6c634300080b0033",
  "immutableReferences": {},
  "source": "// SPDX-License-Identifier: MIT\r\npragma solidity >=0.4.22 <0.9.0;\r\n\r\nimport \"@openzeppelin/contracts-upgradeable/proxy/utils/Initializable.sol\";\r\n\r\ncontract UpgradeablePetV2 is Initializable {\r\n  uint256 private _value;\r\n  address private _petOwner;\r\n\r\n  // Emitted when the stored value changes\r\n  event ValueChanged(uint256 value);\r\n\r\n  function initialize(address petOwner) public initializer {\r\n    _petOwner = petOwner;\r\n  }\r\n\r\n  /// @custom:oz-upgrades-unsafe-allow constructor\r\n  constructor() {\r\n     _disableInitializers();\r\n  }\r\n\r\n  // Stores a new value in the contract\r\n  function store(uint256 value) public {\r\n    require(msg.sender == _petOwner, \"UpgradeablePet: not owner\");\r\n    _value = value;\r\n    emit ValueChanged(value);\r\n  }\r\n\r\n  // Reads the last stored value\r\n  function retrieve() public view returns (uint256) {\r\n    return _value;\r\n  }\r\n\r\n  //funcion para incrementar el valor del store\r\n  function increment() public{\r\n    _value++;\r\n    emit ValueChanged(_value);\r\n  }\r\n}\r\n",
  "sourcePath": "D:\\cursoSolidity\\GuiasTruffleProyectos\\ActualizacionSmartContracts\\contracts\\UpgradeablePetV2.sol",
  "compiler": {
    "name": "solc",
    "version": "0.8.11+commit.d7f03943.Emscripten.clang"
  },
  "schemaVersion": "3.4.4",
  "updatedAt": "2022-08-28T12:56:03.927Z",
  "networkType": "ethereum",
  "devdoc": {
    "kind": "dev",
    "methods": {
      "constructor": {
        "custom:oz-upgrades-unsafe-allow": "constructor"
      }
    },
    "version": 1
  },
  "userdoc": {
    "kind": "user",
    "methods": {},
    "version": 1
  }
}